:100000000C9434000C9449000C9449000C94490061
:100010000C9449000C9449000C9449000C9449003C
:100020000C9449000C9449000C9449000C9449002C
:100030000C9449000C940E010C9449000C94490056
:100040000C9449000C9449000C9449000C9449000C
:100050000C9449000C9449000C9449000C944900FC
:100060000C9449000C94490011241FBECFEFD8E036
:10007000DEBFCDBF11E0A0E0B1E0E2E5F4E002C0F8
:1000800005900D92AC3EB107D9F70E9457010C9430
:1000900027020C940000862325B1811109C081E05C
:1000A00090E001C0880F4A95EAF78095822307C047
:1000B00081E090E001C0880F4A95EAF7822B85B96C
:1000C0000895E1ECF0E08081886080838081806128
:1000D0008083E2ECF0E080818F77808380818F7B6A
:1000E000808380818F7D808380818F7E80838081EB
:1000F000877F808380818B7F808380818460808301
:1001000080818260808380818E7F808388E080937D
:10011000C4001092C50008959091C00095FFFCCFD7
:100120008093C6000895CF93DF93EC0189918823D3
:1001300019F00E948C00FACFDF91CF910895CF93F0
:10014000C82F82E091E00E9493008C2F82958F70DF
:100150008A3010F4805D01C0895C0E948C008C2F75
:100160008F708A3014F4805D01C0895CCF910C944B
:100170008C00ECEBF0E08081846080831092B90009
:1001800088E48093B800089584EA8093BC0080914D
:10019000BC0087FFFCCF089584E98093BC000895DC
:1001A0008093BB0084E88093BC008091BC0087FFF3
:1001B000FCCF0895892B11F084EC01C084E8809372
:1001C000BC00672B21F08091BC0087FFFCCF089515
:1001D00089E09DE390938900809388007894E0E81B
:1001E000F0E0808181608083808182608083E1E8AB
:1001F000F0E080818860808380818061808380815D
:100200008160808380818D7F808380818460808312
:10021000EFE6F0E080818160808308951F920F9265
:100220000FB60F9211242F933F934F935F936F93C9
:100230007F938F939F93AF93BF93CF93DF93EF936E
:10024000FF93C0E0D1E040E050E061E088810E948F
:100250004B0041E050E062E088810E944B0042E0A8
:1002600050E064E088810E944B0044E050E068E088
:1002700088810E944B0080910001909101010197BB
:100280009093010180930001FF91EF91DF91CF9155
:10029000BF91AF919F918F917F916F915F914F919E
:1002A0003F912F910F900FBE0F901F901895209A9D
:1002B000219A229A249A52980E9461000E94B900C1
:1002C00084E48093BC0086E08093BA00C0E0D0E074
:1002D000E12CF12C00E010E024E8D22E30E1A32E36
:1002E00044E4C42E54E9B52E64EC962E209711F404
:1002F000D092BC000115110581F0E114F10469F000
:10030000209759F40E94E80080910001909101012A
:1003100097FFFECFF894C1E0D0E08091BB0083301E
:10032000B9F52097A9F5012B89F585E091E00E94A8
:1003300093004A99FECF88E191E00E949300A09239
:10034000BB008091BC0080688093BC0089E291E092
:100350000E9493008091B900887F0E949F0086E0F0
:100360000E94D0008091B900887F0E949F0080E1A8
:100370000E94D0008091B900887F0E949F0084E491
:1003800091E00E949300EE24E394F12C01E010E050
:100390004A9937C02097A9F5EF2809F054C00E9468
:1003A000C40086E00E94D00083E00E94D0008EE569
:1003B00091E00E949300B092BC0080E791E00E941F
:1003C00093000E94C4008FE791E00E9493009092F6
:1003D000BC0084E991E00E9493008091B900887F7D
:1003E0000E949F008091BB008031E1F78DEA91E08F
:1003F0000E949300B092BC00C092BC0001E010E0EB
:1004000022C0C130D10509F071CFD092BC004A9909
:1004100010C00E94C40086E00E94D00087E00E94C5
:10042000D0008FEB91E00E949300C092BC00C2E02C
:10043000D0E08091BB00873009F058CF86ED91E085
:100440000E94930053CFEE24E394F12C4FCFF89405
:02045000FFCFDC
:1004520005003078004D61737465722050726573C7
:1004620073656420210D0A004920414D20544845FE
:1004720020534C4156450D0A00534C4156452077B6
:10048200696C6C2073656E6420524553504F4E5315
:10049200450D0A00534C41564520484153205345CF
:1004A2004E5420524553504F4E53450D0A00492099
:1004B200414D20544845204D41535445520D0A00A8
:1004C2004166746572204D41535445520D0A0041F4
:1004D20066746572204D41535445522073746172A3
:1004E200740D0A004C61756E636865642072656103
:1004F20064206E6F6E626C6F636B0D0A00536C61E9
:100502007665205072657373656420210D0A005967
:100512004F55275245205448452057494E4E455283
:100522002121210D0A00594F552752452054484593
:0C053200204C4F5345522121210D0A009E
:00000001FF
