:100000000C9434000C943E000C943E000C943E0082
:100010000C943E000C943E000C943E000C943E0068
:100020000C943E000C943E000C943E000C943E0058
:100030000C943E000C943E000C943E000C943E0048
:100040000C943E000C943E000C943E000C943E0038
:100050000C943E000C943E000C943E000C943E0028
:100060000C943E000C943E0011241FBECFEFD8E04C
:10007000DEBFCDBF0E9451000C946A000C940000BA
:100080009BB1982B9BB92FEF33ED90E3215030407B
:100090009040E1F700C000009BB1809589238BB9A7
:1000A00008958AB188668AB980E20E94400080E49F
:1000B0000E94400088E00E94400080E60E944000CC
:1000C00088E40E94400088E20E94400088E60E9486
:0800D0004000EACFF894FFCFD5
:00000001FF
