:100000000C9434000C943E000C943E000C943E0082
:100010000C943E000C943E000C943E000C943E0068
:100020000C943E000C943E000C943E000C943E0058
:100030000C943E000C943E000C943E000C943E0048
:100040000C943E000C943E000C943E000C943E0038
:100050000C943E000C943E000C943E000C943E0028
:100060000C943E000C943E0011241FBECFEFD8E04C
:10007000DEBFCDBF0E94B9000C94CB000C940000F1
:1000800088E48093B80080E78093BA00089584E9FB
:100090008093BC0008951092C50088E08093C4004E
:1000A00088E18093C1000895E0ECF0E0908195FF35
:1000B000FDCF8093C60008950F931F93CF93FC014B
:1000C0008081882359F08F01C0E0CF5F0E945400E7
:1000D000F801EC0FF11D80818111F7CFCF911F91B5
:1000E0000F910895E0ECF0E080818823ECF7809197
:1000F000C6000895CF93C82F82958F708A3014F46C
:10010000805D01C0895C0E945400CF70CA301CF42D
:1001100080E38C0F02C087E38C0F0E945400CF91C4
:100120000895CF93DF9384EA8093BC00ECEBF0E07A
:1001300080818823ECF7C9EBD0E088810E947A00A7
:100140008881887F883091F48091BA008093BB00C9
:1001500084E88093BC00ECEBF0E080818823ECF72E
:10016000C9EBD0E088810E947A008881DF91CF912D
:1001700008950E944B000E9440000CEB10E0C4E97F
:100180000E949100F801C0838AE00E9454008DE033
:0A0190000E945400F5CFF894FFCF51
:00000001FF
