:100000000C9434000C943E000C943E000C943E0082
:100010000C943E000C943E000C943E000C943E0068
:100020000C943E000C943E000C943E000C943E0058
:100030000C943E000C943E000C943E000C943E0048
:100040000C943E000C943E000C943E000C943E0038
:100050000C943E000C943E000C943E000C943E0028
:100060000C943E000C943E0011241FBECFEFD8E04C
:10007000DEBFCDBF0E9489000C94D4000C94000018
:1000800095B1987E95B995B1282F2870220F877069
:10009000892B822B85B908958AE09BE8A2E0B0E025
:1000A0000197A109B109E1F74A9BFECF8AE09BE8DD
:1000B000A2E0B0E00197A109B109E1F708958AE053
:1000C0009BE8A2E0B0E00197A109B109E1F74C9BE0
:1000D000FECF8AE09BE8A2E0B0E00197A109B10958
:1000E000E1F70895F999FECF07B600FCFDCF90E047
:1000F00092BD81BD60BDFA9AF99A0895F999FECF33
:1001000007B600FCFDCF90E092BD81BDF89A80B5A6
:100110000895CF93DF9300D000D0CDB7DEB7CE01E6
:1001200001967C0110E4812F0E947E00F7018193EB
:100130007F011F5F1434B9F780E30E947E00082F0F
:10014000209A219A229A249A52985498FC980370E3
:100150004C9907C00F5F602F80E30E9472000E94DD
:100160005F00E02EF12CE1E0F0E0EC0FFD1FEE0D62
:10017000FF1D10811F701083812F0E9440004A993B
:10018000E6CF1F5FE1E0F0E0EC0FFD1FEE0DFF1D7D
:100190001083612F80E4800F0E947200812F0E94E3
:0C01A00040000E944C00D3CFF894FFCF29
:00000001FF
