:100000000C9434000C943E000C943E000C943E0082
:100010000C943E000C943E000C943E000C943E0068
:100020000C943E000C943E000C943E000C943E0058
:100030000C943E000C943E000C943E000C943E0048
:100040000C943E000C943E000C943E000C943E0038
:100050000C943E000C943E000C943E000C943E0028
:100060000C943E000C943E0011241FBECFEFD8E04C
:10007000DEBFCDBF0E9440000C945F000C940000D6
:10008000209A529891E04A99FECF85B1892785B987
:100090002FEF30E782E0215030408040E1F700C090
:1000A00000004A99F0CF2FEF30E782E02150304036
:1000B0008040E1F700C000004A9BF5CFE4CFF89400
:0200C000FFCF70
:00000001FF
