:100000000C9434000C9451000C9451000C94510049
:100010000C9451000C9451000C9451000C9451001C
:100020000C9451000C9451000C9451000C9451000C
:100030000C9451000C9451000C9451000C945100FC
:100040000C9451000C9451000C9451000C945100EC
:100050000C9451000C9451000C9451000C945100DC
:100060000C9451000C94510011241FBECFEFD8E026
:10007000DEBFCDBF11E0A0E0B1E0EAE1F3E002C0F5
:1000800005900D92A231B107D9F721E0A2E1B1E0CC
:1000900001C01D92A431B207E1F70E94F8000C9450
:1000A0008B010C94000088E48093B800089584E9E3
:1000B0008093BC0008958093BB0084E88093BC00CB
:1000C000ECEBF0E080818823ECF78091B900089593
:1000D0001092C50088E08093C40088E18093C1003D
:1000E0000895E0ECF0E0908195FFFDCF8093C6008D
:1000F00008950F931F93CF93FC018081882359F0BB
:100100008F01C0E0CF5F0E947100F801EC0FF11D7C
:1001100080818111F7CFCF911F910F91089594EABB
:100120009093BC00ECEBF0E090819923ECF7909178
:10013000B900987F983051F09091B900987F903134
:1001400029F080E091E00E9479000895880F682BE3
:100150006093BB0084E88093BC00ECEBF0E080810E
:100160008823ECF78091B9000895E0ECF0E08081FD
:100170008823ECF78091C6000895CF93C82F82950D
:100180008F708A3014F4805D01C0895C0E94710018
:10019000CF70CA301CF480E38C0F02C087E38C0F51
:1001A0000E947100CF9108958091120190911301E6
:1001B0000024969587950794969587950794982F90
:1001C000802D84688093BC00ECEBF0E08081882374
:1001D000ECF78091B900887F803529F08091B900D3
:1001E000887F883521F48091BB000E94BD0008956E
:1001F0000E94680088E48093B8002FEF81EE94E0BD
:10020000215080409040E1F700C0000060E088E3AA
:100210000E948F0081E70E945B0084E98093BC000C
:1002200061E088E30E948F008091BB0083FD16C0CF
:1002300084E98093BC0060E088E30E948F008EEB2D
:100240000E945B0088E00E945B0080E00E945B00EF
:10025000EFE3FCE93197F1F700C0000084E98093F7
:10026000BC000F2EFCEBEF2EF12CF02D04E9CBEBB4
:10027000D0E0CC24C394D12CFFEF21EE84E0F150E8
:1002800020408040E1F700C0000060E088E30E9469
:100290008F008CEA0E945B0083E30E945B0080E099
:1002A0000E945B00F7010083FFEF27EE83E0F1502F
:1002B00020408040E1F700C0000061E088E30E9438
:1002C0008F008881882364F49FEFE7EEF3E091507C
:1002D000E040F040E1F700C0000088818823A4F3EB
:1002E000D0921301C092120116E00E94D40080E265
:1002F0000E9471001150C9F710921301109212015F
:100300000E94D4008AE00E9471008DE00E9471007A
:0A031000F7010083B1CFF894FFCF8E
:10031A0054575F535441545553204641494C454420
:02032A000000D1
:00000001FF
