:100000000C9434000C9451000C9451000C94510049
:100010000C9451000C9451000C9451000C9451001C
:100020000C9451000C9451000C9451000C9451000C
:100030000C9451000C9451000C9451000C945100FC
:100040000C9451000C9451000C9451000C945100EC
:100050000C9451000C9451000C9451000C945100DC
:100060000C9451000C94510011241FBECFEFD8E026
:10007000DEBFCDBF11E0A0E0B1E0E4E6F3E002C0F6
:1000800005900D92A23AB107D9F721E0A2EAB1E0BA
:1000900001C01D92A43AB207E1F70E941F010C941F
:1000A000B0010C94000088E48093B800089584E9BE
:1000B0008093BC0008951092C50088E08093C4002E
:1000C00088E18093C1000895E0ECF0E0908195FF15
:1000D000FDCF8093C6000895CF93C82F82958F706F
:1000E0008A3014F4805D01C0895C0E946400CF7086
:1000F000CA301CF480E38C0F02C087E38C0F0E948F
:100100006400CF9108950F931F93CF93FC018081DA
:10011000882359F08F01C0E0CF5F0E946400F8018E
:10012000EC0FF11D80818111F7CFCF911F910F91BD
:1001300008950E94830080E091E00E9483008091F6
:10014000B9000E946C0083E091E00E948300089552
:1001500094EA9093BC00ECEBF0E090819923ECF7EB
:100160009091B900987F983051F09091B900987FA4
:10017000903129F087E091E00E9499000895880F5E
:10018000682B6093BB0084E88093BC00ECEBF0E04C
:1001900080818823ECF78091B900887F883149F00D
:1001A0008091B900887F803421F082E391E00E9441
:1001B000990008958093BB0084E88093BC00ECEB29
:1001C000F0E080818823ECF78091B900887F883245
:1001D00021F082E691E00E94990008958091A201A9
:1001E0009091A301002496958795079496958795FD
:1001F0000794982F802D84688093BC00ECEBF0E08E
:1002000080818823ECF78091B900887F803551F098
:100210008091B900887F883529F082E891E00E94BA
:10022000990008958091BB000E946C000895E0EC55
:10023000F0E080818823ECF78091C60008950E9449
:100240005B0088E48093B8002FEF81EE94E02150AA
:1002500080409040E1F700C0000060E088E30E9429
:10026000A80081E70E94DA0084E98093BC0061E085
:1002700088E30E94A8008091BB0083FD16C084E93A
:100280008093BC0060E088E30E94A8008EEB0E948F
:10029000DA0088E00E94DA0080E00E94DA00EFE3F2
:1002A000FCE93197F1F700C0000084E98093BC00BD
:1002B0000F2EFCEBEF2EF12CF02D04E9CBEBD0E070
:1002C000CC24C394D12CFFEF21EE84E0F1502040E8
:1002D0008040E1F700C0000060E088E30E94A800D1
:1002E0008CEA0E94DA0083E30E94DA0080E00E9438
:1002F000DA00F7010083FFEF27EE83E0F1502040A2
:100300008040E1F700C0000061E088E30E94A8009F
:100310008881882364F49FEFE7EEF3E09150E0409A
:10032000F040E1F700C0000088818823A4F3D09258
:10033000A301C092A20116E00E94EE0080E20E949A
:1003400064001150C9F71092A3011092A2010E94FB
:10035000EE0084E091E00E948300F7010083B3CFB8
:04036000F894FFCF3F
:10036400205B005D0A0D006932632073746172744E
:100374002829203D3E2054575F535441545553205F
:100384004641494C4544202854575F5354415254E4
:1003940029006932632073746172742829203D3EF8
:1003A4002054575F535441545553204641494C45BA
:1003B4004420284D545F4D545F534C415F41434B9F
:1003C40029006932632077726974652829203D3ECB
:1003D4002054575F535441545553204641494C458A
:1003E400440069326320726561642829203D3E20FF
:1003F40054575F535441545553204641494C454446
:020404000000F6
:00000001FF
