:100000000C9434000C9449000C9449000C94490061
:100010000C9449000C9449000C9449000C9449003C
:100020000C9449000C9449000C9449000C9449002C
:100030000C9449000C9449000C9449000C9449001C
:100040000C9449000C9449000C9449000C9449000C
:100050000C9449000C9449000C9449000C944900FC
:100060000C9449000C94490011241FBECFEFD8E036
:10007000DEBFCDBF11E0A0E0B1E0E2E9F4E002C0F4
:1000800005900D92A23AB107D9F70E94FB010C949A
:1000900047020C940000EAE7F0E0808180688083EA
:1000A000808187608083ECE7F0E0808180648083DA
:1000B00008950E94960160E080E20E949A0186E025
:1000C0000E94CC018FE00E94CC0180E00E94CC0114
:1000D0000C94C801FF920F931F93CF93DF93CDB77A
:1000E000DEB72B970FB6F894DEBF0FBECDBF182F2B
:1000F000F62E042F8FE3898386E08A838BE58B833A
:100100008FE48C8386E68D838DE68E838DE78F83E7
:1001100087E088878FE789878FE68A871B8660E07C
:1001200080E20E949A0182E00E94CC0128E030E047
:100130002F19310981E090E001C0880F2A95EAF774
:1001400080950E94CC01812F90E0E1E0F0E0EC0F7F
:10015000FD1FE80FF91F8081011180680E94CC010A
:100160002B960FB6F894DEBF0FBECDBFDF91CF91B7
:100170001F910F91FF900C94C8018F929F92AF92A4
:10018000BF92CF92DF92EF92FF924B015C0128EE7B
:1001900033E040E050E00E942502822F40E064E01E
:1001A0000E946A0040E064E08AE00E946A00C501A3
:1001B000B40124E630E040E050E00E9425028AE0ED
:1001C000C82ED12CE12CF12CCA01B901A70196014E
:1001D0000E942502862F40E063E00E946A0040E012
:1001E00063E08AE00E946A00C501B401A70196019C
:1001F0000E942502B62ECA01B901A70196010E94EC
:100200002502862F40E062E00E946A0040E062E042
:100210008AE00E946A0040E061E08B2D0E946A0043
:1002200040E061E08AE0FF90EF90DF90CF90BF90D8
:10023000AF909F908F900C946A001092C50088E058
:100240008093C40088E18093C10008959091C0001C
:1002500095FFFCCF8093C60008950F931F93CF9313
:100260008C01C0E0F801EC0FF11D8081882321F0A2
:10027000CF5F0E942601F6CFCF911F910F91089575
:100280008091C00087FFFCCF8091C6000895CF9376
:10029000C82F82958F708A3010F4805D01C0895C10
:1002A0000E9426018C2F8F708A3014F4805D01C06B
:1002B000895CCF910C942601CF93DF93EC018A30B7
:1002C000910538F06AE070E00E941102CB010E94B3
:1002D0005C01CE016AE070E00E941102805DDF9156
:1002E000CF910C942601CF93C82F82958F708A30BE
:1002F00010F4805D01C0895C0E9426018C2F8F70F4
:100300008A3014F4805D01C0895CCF910C94260181
:100310000E942D0180E091E00E942D018091B900A2
:100320000E94730183E091E00C942D0188E4809396
:10033000B800089594EA9093BC009091BC0097FF98
:10034000FCCF9091B900987F983041F09091B9001E
:10035000987F903119F087E091E017C0880F682BE3
:100360006093BB0084E88093BC008091BC0087FF51
:10037000FCCF8091B900887F883149F08091B90025
:10038000887F803421F082E391E00C948801089505
:1003900084E98093BC0008958093BB0084E8809337
:1003A000BC008091BC0087FFFCCF8091B900887FA2
:1003B000883221F082E691E00C948801089520E4CF
:1003C000829FC001112484688093BC008091BC008E
:1003D00087FFFCCF8091B900887F803549F08091FC
:1003E000B900887F883521F082E891E00E94880179
:1003F0008091BB0008950E9459000E944B0080919B
:100400007A00806480937A0080917A0086FDFCCF28
:10041000609178007091790080E090E00E94BD00CA
:10042000EECFAA1BBB1B51E107C0AA1FBB1FA6171B
:10043000B70710F0A61BB70B881F991F5A95A9F78D
:1004400080959095BC01CD010895A1E21A2EAA1BBA
:10045000BB1BFD010DC0AA1FBB1FEE1FFF1FA21774
:10046000B307E407F50720F0A21BB30BE40BF50B71
:10047000661F771F881F991F1A9469F760957095FA
:10048000809590959B01AC01BD01CF010895F89432
:02049000FFCF9C
:10049200205B005D0A0D006932632073746172741F
:1004A2002829203D3E2054575F5354415455532030
:1004B2004641494C4544202854575F5354415254B5
:1004C20029006932632073746172742829203D3EC9
:1004D2002054575F535441545553204641494C458B
:1004E2004420284D545F4D545F534C415F41434B70
:1004F20029006932632077726974652829203D3E9C
:100502002054575F535441545553204641494C455A
:10051200440069326320726561642829203D3E20CF
:1005220054575F535441545553204641494C454416
:020532000000C7
:00000001FF
