:100000000C9434000C9449000C9449000C94490061
:100010000C9449000C9449000C9449000C9449003C
:100020000C9449000C9449000C9449000C9449002C
:100030000C9449000C9449000C9449000C9449001C
:100040000C9449000C9449000C9449000C9449000C
:100050000C9449000C9449000C9449000C944900FC
:100060000C9449000C94490011241FBECFEFD8E036
:10007000DEBFCDBF11E0A0E0B1E0EEE3F3E002C0EF
:1000800005900D92A23AB107D9F70E9482010C9413
:100090009D010C9400000E941D0160E080E20E941E
:1000A000210186E00E9453018FE00E94530180E00D
:1000B0000E9453010C944F010F931F93CF93DF9332
:1000C000CDB7DEB72A970FB6F894DEBF0FBECDBF0F
:1000D000182F062F8FE3898386E08A838BE58B8335
:1000E0008FE48C8386E68D838DE68E838DE78F8308
:1000F00087E088878FE789878FE68A8760E080E2DC
:100100000E94210182E00E94530128E030E0201B80
:10011000310981E090E001C0880F2A95EAF78095C7
:100120000E945301FE01E10FF11D81810E945301E4
:100130002A960FB6F894DEBF0FBECDBFDF91CF91E8
:100140001F910F910C944F011092C50088E080938D
:10015000C40088E18093C10008959091C00095FF8C
:10016000FCCF8093C60008950F931F93CF938C010B
:10017000C0E0F801EC0FF11D8081882321F0CF5FF2
:100180000E94AD00F6CFCF911F910F9108958091FD
:10019000C00087FFFCCF8091C6000895CF93C82F81
:1001A00082958F708A3010F4805D01C0895C0E9456
:1001B000AD008C2F8F708A3014F4805D01C0895C93
:1001C000CF910C94AD00CF93DF93EC018A30910571
:1001D00038F06AE070E00E948901CB010E94E300E0
:1001E000CE016AE070E00E948901805DDF91CF91CD
:1001F0000C94AD00CF93C82F82958F708A3010F485
:10020000805D01C0895C0E94AD008C2F8F708A30A8
:1002100014F4805D01C0895CCF910C94AD000E9404
:10022000B40080E091E00E94B4008091B9000E9487
:10023000FA0083E091E00C94B40088E48093B80065
:10024000089594EA9093BC009091BC0097FFFCCF76
:100250009091B900987F983041F09091B900987FC3
:10026000903119F087E091E017C0880F682B6093F8
:10027000BB0084E88093BC008091BC0087FFFCCF6A
:100280008091B900887F883149F08091B900887FDA
:10029000803421F082E391E00C940F01089584E909
:1002A0008093BC0008958093BB0084E88093BC00D9
:1002B0008091BC0087FFFCCF8091B900887F883295
:1002C00021F082E691E00C940F01089520E4829FD2
:1002D000C001112484688093BC008091BC0087FF1A
:1002E000FCCF8091B900887F803549F08091B900BA
:1002F000887F883521F082E891E00E940F0180918B
:10030000BB0008950E944B0063E086E00E945C0001
:10031000FFCFAA1BBB1B51E107C0AA1FBB1FA6171B
:10032000B70710F0A61BB70B881F991F5A95A9F79E
:0E03300080959095BC01CD010895F894FFCF03
:10033E00205B005D0A0D0069326320737461727474
:10034E002829203D3E2054575F5354415455532085
:10035E004641494C4544202854575F53544152540A
:10036E0029006932632073746172742829203D3E1E
:10037E002054575F535441545553204641494C45E0
:10038E004420284D545F4D545F534C415F41434BC5
:10039E0029006932632077726974652829203D3EF1
:1003AE002054575F535441545553204641494C45B0
:1003BE00440069326320726561642829203D3E2025
:1003CE0054575F535441545553204641494C45446C
:0203DE0000001D
:00000001FF
