:100000000C9434000C9449000C9449000C94490061
:100010000C9449000C9449000C9449000C9449003C
:100020000C9449000C9449000C9449000C9449002C
:100030000C9449000C9449000C9449000C9449001C
:100040000C9449000C9449000C9449000C9449000C
:100050000C9449000C9449000C9449000C944900FC
:100060000C9449000C94490011241FBECFEFD8E036
:10007000DEBFCDBF11E0A0E0B1E0E6E5F3E002C0F5
:1000800005900D92A23AB107D9F70E948D010C9408
:10009000A9010C9400000E94280160E080E20E9407
:1000A0002C0186E00E945E018FE00E945E0180E0EC
:1000B0000E945E010C945A01FF920F931F93CF93FD
:1000C000DF93CDB7DEB72B970FB6F894DEBF0FBE28
:1000D000CDBF182FF62E042F8FE3898386E08A8305
:1000E0008BE58B838FE48C8386E68D838DE68E8310
:1000F0008DE78F8387E088878FE789878FE68A87F8
:100100001B8660E080E20E942C0182E00E945E017A
:1001100028E030E02F19310981E090E001C0880F1C
:100120002A95EAF780950E945E01812F90E0E1E038
:10013000F0E0EC0FFD1FE80FF91F808101118068CE
:100140000E945E012B960FB6F894DEBF0FBECDBFA6
:10015000DF91CF911F910F91FF900C945A01109253
:10016000C50088E08093C40088E18093C1000895B1
:100170009091C00095FFFCCF8093C60008950F9327
:100180001F93CF938C01C0E0F801EC0FF11D80812B
:10019000882321F0CF5F0E94B800F6CFCF911F9146
:1001A0000F9108958091C00087FFFCCF8091C60019
:1001B0000895CF93C82F82958F708A3010F4805D98
:1001C00001C0895C0E94B8008C2F8F708A3014F4B3
:1001D000805D01C0895CCF910C94B800CF93DF9310
:1001E000EC018A30910538F06AE070E00E949501D8
:1001F000CB010E94EE00CE016AE070E00E94950102
:10020000805DDF91CF910C94B800CF93C82F829579
:100210008F708A3010F4805D01C0895C0E94B80044
:100220008C2F8F708A3014F4805D01C0895CCF916F
:100230000C94B8000E94BF0080E091E00E94BF00D3
:100240008091B9000E94050183E091E00C94BF0009
:1002500088E48093B800089594EA9093BC0090914C
:10026000BC0097FFFCCF9091B900987F983041F087
:100270009091B900987F903119F087E091E017C014
:10028000880F682B6093BB0084E88093BC0080914A
:10029000BC0087FFFCCF8091B900887F883149F08E
:1002A0008091B900887F803421F082E391E00C9442
:1002B0001A01089584E98093BC0008958093BB00DF
:1002C00084E88093BC008091BC0087FFFCCF8091C4
:1002D000B900887F883221F082E691E00C941A01FF
:1002E000089520E4829FC001112484688093BC009B
:1002F0008091BC0087FFFCCF8091B900887F80355A
:1003000049F08091B900887F883521F082E891E03A
:100310000E941A018091BB0008950E944B0040E0AA
:1003200061E082E00E945C00FFCFAA1BBB1B51E191
:1003300007C0AA1FBB1FA617B70710F0A61BB70B55
:10034000881F991F5A95A9F780959095BC01CD01FA
:060350000895F894FFCFB0
:10035600205B005D0A0D006932632073746172745C
:100366002829203D3E2054575F535441545553206D
:100376004641494C4544202854575F5354415254F2
:1003860029006932632073746172742829203D3E06
:100396002054575F535441545553204641494C45C8
:1003A6004420284D545F4D545F534C415F41434BAD
:1003B60029006932632077726974652829203D3ED9
:1003C6002054575F535441545553204641494C4598
:1003D600440069326320726561642829203D3E200D
:1003E60054575F535441545553204641494C454454
:0203F600000005
:00000001FF
