:100000000C9434000C943E000C943E000C943E0082
:100010000C943E000C943E000C943E000C943E0068
:100020000C943E000C943E000C943E000C943E0058
:100030000C943E000C943E000C943E000C943E0048
:100040000C943E000C943E000C943E000C943E0038
:100050000C943E000C943E000C943E000C943E0028
:100060000C943E000C943E0011241FBECFEFD8E04C
:10007000DEBFCDBF0E94A7000C94BB000C94000013
:10008000EAE7F0E0808180688083808187608083F8
:10009000ECE7F0E080818064808308958CE284B98D
:1000A00081E58CBD08958EBD0DB407FEFDCF08958A
:1000B00080E00E94530080E00E94530080E00E9494
:1000C000530080E00C9453001F93CF93DF93162FBF
:1000D000D42FC22F0E945300812F0E9453008D2FD6
:1000E0000E9453008C2FDF91CF911F910C945300ED
:1000F0008FEF0E9453008FEF0E9453008FEF0E94FA
:1001000053008FEF0C9453000F931F93CF93DF9303
:100110008C010E945800C5E5D1E00C171D0728F09E
:100120002FEF40E060E081EE04C020E040E060E0BE
:1001300080EE0E946400CB5ADE4FC43585E0D807BC
:1001400061F7DF91CF911F910F910C9478000E947D
:1001500040000E944E0080917A00806480937A0073
:1001600080917A0086FDFCCF809178009091790093
:0A0170000E948400F0CFF894FFCF46
:00000001FF
