:100000000C9434000C943E000C943E000C943E0082
:100010000C943E000C943E000C943E000C943E0068
:100020000C943E000C943E000C943E000C943E0058
:100030000C943E000C943E000C943E000C943E0048
:100040000C943E000C943E000C943E000C943E0038
:100050000C943E000C943E000C943E000C943E0028
:100060000C943E000C943E0011241FBECFEFD8E04C
:10007000DEBFCDBF0E9440000C94B1000C94000084
:10008000219A8AB18B7E8AB98AE196E090938900A1
:100090008093880089E09DE3909387008093860099
:1000A000A0E8B0E08C9182608C93E1E8F0E0808180
:1000B000886080838081806180838081816080838B
:1000C0008081846080838C9180688C9381E04AE198
:1000D00056E0E8E8F0E04A9921C08A30F8F48F5FF2
:1000E000849F9001859F300D1124318320832FEF51
:1000F00030E792E0215030409040E1F700C000002E
:100100004A99E9CF2FEF30E792E0215030409040FC
:10011000E1F700C000004A9BF5CFDDCF4C99DBCF63
:100120008823C9F28150849F9001859F300D11244E
:10013000318320832FEF30E792E021503040904010
:10014000E1F700C000004C99C6CF2FEF30E792E0F6
:10015000215030409040E1F700C000004C9BF5CFAB
:06016000BACFF894FFCFB6
:00000001FF
