:100000000C9434000C9449000C9449000C94490061
:100010000C9449000C9449000C9449000C9449003C
:100020000C9449000C9449000C9449000C9449002C
:100030000C9449000C9449000C9449000C9449001C
:100040000C9449000C9449000C9449000C9449000C
:100050000C9449000C9449000C9449000C944900FC
:100060000C9449000C94490011241FBECFEFD8E036
:10007000DEBFCDBF11E0A0E0B1E0E4E4F3E002C0F8
:1000800005900D92A033B107D9F70E9452010C944C
:10009000A0010C9400001092C50088E08093C40079
:1000A00088E18093C1000895E0ECF0E0908195FF35
:1000B000FDCF8093C60008950F931F93CF93FC014B
:1000C0008081882359F08F01C0E0CF5F0E945400E7
:1000D000F801EC0FF11D80818111F7CFCF911F91B5
:1000E0000F910895E0ECF0E080818823ECF7809197
:1000F000C6000895CF93C82F82958F708A3014F46C
:10010000805D01C0895C0E945400CF70CA301CF42D
:1001100080E38C0F02C087E38C0F0E945400CF91C4
:100120000895F999FECF07B600FCFDCF90E092BD8F
:1001300081BD60BDFA9AF99A0895F999FECF07B684
:1001400000FCFDCF90E092BD81BDF89A80B5089586
:10015000CF93DF93C82FD62F0E949D008D1721F0DB
:100160006D2F8C2F0E949100DF91CF910895DF9227
:10017000EF92FF920F931F93CF93DF93623071053D
:1001800030F19B01240F351F2115344010F58A01F1
:10019000EB017C01D62E862F81500E949D00873670
:1001A000D1F48C2F82500E949D008736B1F4011546
:1001B0001105A9F0E7010E0D1F1D8D2D0E949D0058
:1001C0008993D394C017D107C1F781E009C080E0BB
:1001D00007C080E005C080E003C080E001C081E08E
:1001E000DF91CF911F910F91FF90EF90DF900895D5
:1001F000CF92DF92EF92FF920F931F93CF93DF93F3
:100200008C01EB017A0180E091E00E945C00C23039
:10021000D105D0F1EC0EFD1EE11484E0F806B0F536
:1002200082E191E00E945C0067E68C2F81500E9481
:10023000A80067E68C2F82500E94A80088E191E018
:100240000E945C00CE15DF0518F50C0F1D1F8FE115
:1002500091E00E945C006801F80180810E945400D6
:10026000F80181918F010E94540085E291E00E9483
:100270005C00F60160818C2F0E94A8002196CE15AB
:10028000DF0528F381E005C080E003C080E001C005
:1002900081E0DF91CF911F910F91FF90EF90DF9060
:1002A000CF900895CF93DF93CDB7DEB72A970FB6DF
:1002B000F894DEBF0FBECDBF0E944B0085E0EAE29E
:1002C000F1E0DE01119601900D928A95E1F744E08C
:1002D00050E064E070E0CE0101960E94F8008111C8
:1002E000289ACE01069625E0FC0111922A95E9F79D
:1002F00044E050E064E070E00E94B7008111299A68
:1003000044E050E064E070E0CE0101960E94F80005
:100310008111289A44E050E064E070E0CE01069636
:100320000E94B70087E291E00E945C00FFEF29E69F
:1003300088E1F15020408040E1F700C00000E0CFAC
:04034000F894FFCF5F
:10034400456E766965206465206372657665722002
:100354003F00524F474552004245524E49450054D2
:1003640045535420005D000A0D0063686174000069
:00000001FF
