:100000000C9434000C943E000C943E000C943E0082
:100010000C943E000C943E000C943E000C943E0068
:100020000C943E000C943E000C943E000C943E0058
:100030000C943E000C943E000C943E000C943E0048
:100040000C943E000C943E000C943E000C943E0038
:100050000C943E000C943E000C943E000C943E0028
:100060000C943E000C943E0011241FBECFEFD8E04C
:10007000DEBFCDBF0E9440000C9464000C940000D1
:10008000219A8AE196E0909389008093880089E024
:100090009DE39093870080938600A0E8B0E08C9168
:1000A00082608C93E1E8F0E08081886080838081C9
:1000B000806180838081816080838081846080838F
:0C00C0008C9180688C93FFCFF894FFCFE8
:00000001FF
