:100000000C9434000C9440000C943E000C943E0080
:100010000C943E000C943E000C943E000C943E0068
:100020000C943E000C943E000C943E000C943E0058
:100030000C943E000C943E000C943E000C943E0048
:100040000C943E000C943E000C943E000C943E0038
:100050000C943E000C943E000C943E000C943E0028
:100060000C943E000C943E0011241FBECFEFD8E04C
:10007000DEBFCDBF0E9452000C9466000C940000BD
:100080001F920F920FB60F9211248F939F9395B1E9
:1000900081E0892785B99F918F910F900FBE0F90B6
:1000A0001F901895209A8FB780688FBFE9E6F0E01F
:1000B000808182608083E89A2FEF81EE94E0215066
:1000C00080409040E1F700C00000F6CFF894FFCFE9
:00000001FF
