:100000000C9434000C9449000C9449000C94490061
:100010000C9449000C9449000C9449000C9449003C
:100020000C9449000C9449000C9449000C9449002C
:100030000C9449000C9449000C9449000C9449001C
:100040000C9449000C9449000C9449000C9449000C
:100050000C9449000C9449000C9449000C944900FC
:100060000C9449000C94490011241FBECFEFD8E036
:10007000DEBFCDBF11E0A0E0B1E0E4EBF1E002C0F3
:1000800005900D92A430B107D9F70E94AB000C94F3
:10009000D8000C9400006AE00E94B80020E1829F22
:1000A000900D1124892F089508951092C50088E0BD
:1000B0008093C40088E18093C10008959091C000AE
:1000C00095FFFCCF8093C60008950F931F93CF93A5
:1000D0008C01C0E0F801EC0FF11D8081882321F034
:1000E000CF5F0E945E00F6CFCF911F910F910895D0
:1000F0008091C00087FFFCCF8091C6000895CF9308
:10010000C82F82958F708A3010F4805D01C0895CA1
:100110000E945E008C2F8F708A3014F4805D01C0C5
:10012000895CCF910C945E00CF93DF93EC018A3011
:10013000910538F06AE070E00E94C400CB010E9493
:100140009400CE016AE070E00E94C400805DDF91FF
:10015000CF910C945E000E94550089E30E945E00DE
:1001600089E30E945E0080E091E00E946500F5CF87
:10017000991B79E004C0991F961708F0961B881FF9
:100180007A95C9F780950895AA1BBB1B51E107C05A
:10019000AA1FBB1FA617B70710F0A61BB70B881F17
:1001A000991F5A95A9F780959095BC01CD010895A6
:0401B000F894FFCFF1
:0401B4000D0A000030
:00000001FF
