:100000000C9434000C9451000C9451000C94510049
:100010000C9451000C9451000C9451000C9451001C
:100020000C9451000C9451000C9451000C9451000C
:100030000C9451000C9451000C9451000C945100FC
:100040000C9476000C9451000C9451000C945100C7
:100050000C9451000C9451000C9451000C945100DC
:100060000C9451000C94510011241FBECFEFD8E026
:10007000DEBFCDBF11E0A0E0B1E0ECE9F1E002C0ED
:1000800005900D92A230B107D9F721E0A2E0B1E0CE
:1000900001C01D92A330B207E1F70E949A000C94B0
:1000A000CC000C94000080910001882331F08091F5
:1000B00002018F5F8093020105C08091020181508F
:1000C0008093020190E09093890080938800809152
:1000D0000201882321F080910201843631F490914D
:1000E000000181E089278093000108951F920F92FB
:1000F0000FB60F9211242F933F934F935F936F93FB
:100100007F938F939F93AF93BF93EF93FF930E943F
:100110005300FF91EF91BF91AF919F918F917F918C
:100120006F915F914F913F912F910F900FBE0F9064
:100130001F901895219A8FB780688FBF8EE487BD76
:1001400084B5836084BD85B5886085BD85B58560CF
:1001500085BDEEE6F0E080818160808380910201C0
:1001600090E0909389008093880084E690E09093DB
:10017000870080938600E0E8F0E0808180688083DB
:10018000808182608083E1E8F0E080818861808303
:0C019000808185608083FFCFF894FFCF52
:02019C00010060
:00000001FF
