:100000000C9434000C943E000C943E000C943E0082
:100010000C943E000C943E000C943E000C943E0068
:100020000C943E000C943E000C943E000C943E0058
:100030000C943E000C943E000C943E000C943E0048
:100040000C943E000C943E000C943E000C943E0038
:100050000C943E000C943E000C943E000C943E0028
:100060000C943E000C943E0011241FBECFEFD8E04C
:10007000DEBFCDBF0E9476000C948F000C94000070
:100080008CE284B981E58CBD08958EBD0DB407FE68
:10009000FDCF089580E00E94450080E00E94450069
:1000A00080E00E94450080E00C9445001F93CF93B0
:1000B000DF93162FD42FC22F0E944500812F0E945C
:1000C00045008D2F0E9445008C2FDF91CF911F910D
:1000D0000C9445008FEF0E9445008FEF0E94450071
:1000E0008FEF0E9445008FEF0C9445000E94400066
:1000F0000E944A002FEF40E060E081EE0E9456002F
:1001000020E040E060E080EE0E94560020E040E009
:1001100060E080EE0E9456000E946A00FFCFF894D3
:02012000FFCF0F
:00000001FF
